:10092B00120B4512089DC2AF120000D2AFC2AF121C
:10093B000B20D2AF7F0A120A3512043B1209EE12BA
:0A094B000AF5120732120A5580EF78
:040AA900D2A07F0553
:100AAD00000000000000000000000000000000AE8B
:060ABD00071FEE70EB22A2
:0F0B5600D2A1120AA9C2A17F05120AADC2A02224
:0C0B7400C2A1120AA9D2A17F05020AAD9D
:02086800AD07DA
:10086A00E4FCECC39408748094805024C2A07F05F1
:10087A00120AADED30E704D2A18002C2A17F0512AF
:10088A000AADD2A0ED25E0FD7F05120AAD0C80D29B
:02089A00C2A0FA
:01089C002239
:1009A300E4FCECC39408748094805017120AA9EDF8
:1009B30025E0FD30A103430501C2A07F05120AAD66
:0509C3000C80DFAF0510
:0109C800220C
:100B3300120AA9A2A1E433FDC2A07F05120AADAF38
:010B430005AC
:010B4400228E
:100ADD00C2A0EF24FF92A17F05120AAD120AA9C28E
:080AED00A0D2A17F05020AADB1
:040B65007F327E005D
:0B0B6900EF1FAC0670011E4C70F6225E
:02095500AD07EC
:10095700E4FBEBC39408748094805012C294ED13A7
:100967009294120B65D294EDC313FD0B80E47F3292
:050977007E00020B6987
:100A1200E4FBEBC39408748094805014C294EDC339
:100A220013FDD294309403430580120B650B80E2D0
:020A3200AF050E
:010A3400229F
:10097C00C200D2947F787E00120B69C2947F207ED5
:10098C0003120B69D2947F647E00120B69A29492BD
:06099C0000120B65A20031
:0109A2002232
:0B0B8000EF1FAC0670011E4C70F62247
:10082F00EF603224FB601314601914601F240370EF
:10083F0027E5A0541F4480F5A022E5A0541F44A033
:10084F00F5A022E5A0541F44C0F5A022E5A0541F37
:09085F0044E0F5A02253A01F2281
:100A8E00AE077580FF7F0612082F8E807F017E00D5
:0B0A9E00120B807F0712082F8D8022B2
:100AC300C0F9A4B0999282F880908883C6A1868EDB
:0A0AD3007FBF0102040810204080DC
:0308FD00012D17B3
:1005F1000529AF29EF3395E0FEEF64064E700375D0
:100601002901E52924FE6015146024146029146071
:100611003624047042E4F52175220A803A752105D9
:10062100AE33AF347C007D641202DD8F22802875E9
:1006310021067522108020752106AE33AF347C006F
:100641007D0A1202DD8007752107AE33AF347C00CD
:100651007D0A1202DD8D22E521900AD593FFE52264
:08066100900AC393FD020A8E0A
:10066900052AAF2AEF3395E0FEEF64064E70037555
:100679002A01E52A24FE60151460241460291460F7
:100689003624047042E4F52175220B803A75210560
:10069900AE35AF367C007D641202DD8F228028756D
:1006A90021067522108020752106AE35AF367C00F3
:1006B9007D0A1202DD8007752107AE35AF367C0051
:1006C9007D0A1202DD8D22E521900AD593FFE522EC
:0806D900900AC393FD020A8E92
:10034000E50EC4F854F0C868FEE50FC4540F48FF2A
:100350007C007D0A1202CBE50F540F2FF524EC3EF2
:10036000F523E50CC4F854F0C868FEE50DC4540F3D
:1003700048FF1202CBE50D540F2FF526EC3EF52574
:10038000E50AC4F854F0C868FEE50BC4540F48FFF2
:100390001202CBE50B540F2FFFEC3EFE052BAD2BCD
:1003A000ED3395E0FCED64094C7003752B01E52BF2
:1003B00014B4080050749003C475F003A4C58325D9
:1003C000F0C583730203DC0203E60203EF0203F4C9
:1003D0000203FF02040802041002041EE4F521AE29
:1003E00023AF24FC802F752101AE23AF248032750A
:1003F00021028017752103AE25AF267C008016757B
:100400002104AE25AF268019752105752211801AA9
:100410007521067C007D0A1202DD8F22800C752179
:10042000077C007D0A1202DD8D22E521900AD5931A
:0B043000FFE522900AC393FD020A8E34
:1006E100052CAF2CEF3395E0FEEF64094E700375D6
:1006F1002C01E52C24F9600F14601924077021E402
:10070100F52175220D8019752106E52D75F00A84F4
:10071100F522800C752107E52D75F00A8485F022FC
:10072100E521900AD593FFE522900AC393FD020AC1
:010731008E39
:08090000022E0000023000008D
:100B20005389F0438901758A18758CFCC28DD28C6B
:030B3000D2A92225
:03000B000204D21A
:1004D200C0E0C0F0C083C082C0D075D000C000C0F0
:0D04E20001C002C003C004C005C006C00771
:1004EF00758A18758CFC7580FF7F0412082FAE3348
:1004FF00AF347C007D0A1202DDC3EF952DEE940020
:10050F00402A052FE52F7002052E9464E52E9400E6
:10051F004021752E00752F006331FF6330FFE531E9
:10052F0045306004E4FD80067D018002E4FD7F0319
:0B053F00120775E4FF12082F1209C913
:10054A00D007D006D005D004D003D002D001D00005
:0B055A00D0D0D082D083D0F0D0E032AF
:10043B00C2AF12097CD2AF7FCC1209557F4412098F
:10044B00557FE87E03120B69C2AF12097CD2AF7FD6
:10045B00CC1209557FBE120955120A128F27120AA8
:10046B00127533008F34E534F533E527F534E53376
:10047B0020E353C4F854F0C868F533E534C4540F83
:10048B0048F534AE33FF7C007D0A1202CB8E338FDE
:10049B0034E527540FFCE4120216E4FBFA792078BA
:1004AB003F120106C004C005C006C007AC33AD3413
:1004BB00E4120211D003D002D001D00012001512A9
:0604CB00024A8E338F345B
:0104D1002208
:100A35008F27120B567F90120868120B337F4012D6
:100A45000868120B33AF27120868120B33020B74B8
:1008CE00120B567F90120868120B337F4112086884
:1008DE00120B33120B567F91120868120B3312094A
:0E08EE00A37527008F28120B33120B74AF284E
:0108FC0022D9
:100AF5001208CE7E007C017DF41202CB1C7DFF1214
:060B050002DD8E358F3683
:010B0B0022C7
:10090800071880828486888A8C0711818385878965
:0B0918008B8D070A29592301010123E0
:10089D00E4FD7F8E120B0CE4F508C3E50894077494
:1008AD00809480501574182508F8E6FF740A250801
:1008BD00F8E6FD120B0C050880E07D807F8E020BA3
:0108CD000C1E
:1009EE00E4F509C3E50994077480948050157411D9
:1009FE002509F8E6FF1207F2740A2509F8A607057D
:030A0E000980E07C
:010A110022C2
:100A7200E4FEEEC3940874809480500FC297EF1383
:0B0A820092A1EFC313FFD2970E80E794
:010A8D002246
:100B0C00C29300C29700D29300120A72AF05120A68
:040B1C0072C29322EC
:1007F200E4FDC29300C29700D29300120A72E4FF92
:10080200EFC39408748094805011C297EDC313FD16
:1008120030A103430580D2970F80E5C29300C297AF
:0C08220000D29700C2A100D2A100AF05D7
:01082E0022A7
:1007B400EF24FE601414601B1460222403702EC204
:1007C400B0D2B3D2B2D2B1801CC2B1D2B3D2B2D2FF
:1007D400B08012C2B2D2B3D2B1D2B08008C2B3D206
:0E07E400B2D2B1D2B0D2B4D2B5D2C2D2C422F7
:03092300011F01B0
:080B8B007F3B7E5ADEFEDFFC19
:010B9300223F
:1009C900E51F640170030205F1E51F64027003026B
:1009D9000669E51F64037003020340E51F640470A0
:0509E900031206E122EB
:100A55007F041207B420B414120B8B20B40B051FAE
:0D0A6500E51F64057003751F0130B4FD220C
:100732007F041207B420C419120B8B20C410052D9C
:10074200C3E52D9463748094804003752D6330C497
:10075200FD7F041207B420C219120B8B20C21015A0
:100762002DD3E52D9409748094805003752D0930A2
:03077200C2FD22A3
:04092600023700FF95
:10077500ED701AEF14FF7E007401A807088005C309
:1007850033CE33CED8F94238EE4237801EEF14FF10
:100795007E007401A807088005C333CE33CED8F98F
:0F07A500F4FFEEF4FEEF5238EE52378538802223
:100B45007F0512082FE4F5807F0412082F7580FFBA
:010B5500227D
:10000E000202B6E86480F8E933E83360110460F068
:10001E00ED33EC337009E8FCE9FDEAFEEBFF220458
:10002E0060DED3EB9FEA9EE99DE8C2E78CF0C2F753
:10003E0095F0400CE8CCF8E9CDF9EACEFAEBCFFB1F
:10004E0012028185D0F05804700320D5B3E80470F5
:10005E00075002B2D50202C092D5EC0460F7E4CC90
:10006E00C0E0C398F8603B94186008400DD0E0FBE8
:10007E00020298E4FBFAC9FC8028E830E406E4C9E1
:10008E00FBE4CAFCE830E305E4C9CACBFCE854073C
:10009E006010F8C3E913F9EA13FAEB13FBEC13FC47
:1000AE00D8F130F52FC3E49CFCEF9BFFEE9AFEEDEA
:1000BE0099FDD0E0FBEF4E4D4C701222DB03020295
:1000CE00BDEC2CFCEF33FFEE33FEED33FDED30E7F0
:1000DE00EB020298EF2BFFEE3AFEED39FDD0E0FB7E
:1000EE0050130BBB00030202C0ED13FDEE13FEEF27
:0800FE0013FFEC13FC02029851
:10010600EC4D6011E8497017ED33EC3304600DE4F3
:10011600FCFFFEFD22E933E8330470F80202B61252
:10012600028158046009E4CC248150062850090253
:1001360002C02840030202BDC0E0EB4A7044B98009
:1001460006D0E0FB0202ACEF4E701CBD8008EBFF50
:10015600EAFEE9FD80EBE98DF0A4FEE5F00201EF91
:10016600E9CDF9EAFEEBFFEF89F0A4FCE5F0CE89D4
:10017600F0A42EFFE435F0CD89F0A42DFEE435F091
:100186008067EF4E7005BD80D780C3EF8BF0A4ACBF
:10019600F0EE8BF0A42CFCE435F0F8EF8AF0A42CFA
:1001A600E5F038FCE433CB8DF0A42CFCE5F03BF80D
:1001B600EE8AF0A42CFCE5F038F8E433CF89F0A4FD
:1001C6002CFCE5F038CF3400CE89F0A42FFFE5F003
:1001D6003EFEE433C98DF0A42EFEE5F039CD8AF05B
:1001E600A42FFFE5F03EFEE43DFD33D0E0FB5007D3
:1001F6000BBB000F0202C0EC2CFCEF33FFEE33FE0C
:06020600ED33FD02029839
:10020C0075F020800E75F010800575F0087D007E6D
:10021C00007F003392D530D503120332EC334010FB
:10022C00EF33FFEE33FEED33FDEC33FCD5F0ED2276
:0E023C00E5F0247EA2D513CC92E7CDCEFF22B2
:10024A00EDD2E7CD33EC3392D524814006E4FFFEAC
:10025A00FDFC22FCE4CFCECDCC24E0501174FF800B
:10026A00EDC3CC13CCCD13CDCE13CECF13CF0470A8
:07027A00F030D5DE02033273
:10028100E9D2E7C933E833F892D5EDD2E7CD33ECC3
:0702910033FC5002B2D5223C
:10029800EC30E7100FBF000C0EBE00080DBD0004C7
:1002A8000BEB6014A2D5EB13FCED92E7FD2274FF73
:1002B800FCFDFEFF22E480F8A2D574FF13FC7D80CC
:0302C800E480EFE0
:0300000002056591
:0C056500787FE4F6D8FD7581380205AC03
:1002CB00EF8DF0A4A8F0CF8CF0A428CE8DF0A42E47
:0202DB00FE2201
:1002DD00BC000BBE0029EF8DF084FFADF022E4CC05
:1002ED00F875F008EF2FFFEE33FEEC33FCEE9DECCE
:1002FD00984005FCEE9DFE0FD5F0E9E4CEFD22ED14
:10030D00F8F5F0EE8420D21CFEADF075F008EF2F5D
:10031D00FFED33FD4007985006D5F0F222C398FD4E
:05032D000FD5F0EA22EB
:0E033200C3E49FFFE49EFEE49DFDE49CFC22DC
:1005710002092BE493A3F8E493A34003F68001F26C
:1005810008DFF48029E493A3F85407240CC8C3338B
:10059100C4540F4420C8834004F456800146F6DF5A
:1005A100E4800B01020408102040809008FDE47EE5
:1005B100019360BCA3FF543F30E509541FFEE4934F
:1005C100A360010ECF54C025E060A840B8E493A316
:1005D100FAE493A3F8E493A3C8C582C8CAC583CA41
:1005E100F0A3C8C582C8CAC583CADFE9DEE780BEF9
:01092A0000CC
:00000001FF
