:100A050012089BC2AF120B10D2AF7F0A120A251231
:100A1500043B1209BE120AE5120730120A4580EF9F
:040A9900D2A07F0563
:100A9D00000000000000000000000000000000AE9B
:060AAD00071FEE70EB22B2
:0F0B3500D2A1120A99C2A17F05120A9DC2A02265
:0C0B5300C2A1120A99D2A17F05020A9DDE
:02086600AD07DC
:10086800E4FCECC39408748094805024C2A07F05F3
:10087800120A9DED30E704D2A18002C2A17F0512C1
:100888000A9DD2A0ED25E0FD7F05120A9D0C80D2BD
:02089800C2A0FC
:01089A00223B
:10097300E4FCECC39408748094805017120A99ED38
:1009830025E0FD30A103430501C2A07F05120A9DA6
:050993000C80DFAF0540
:01099800223C
:100B2300120A99A2A1E433FDC2A07F05120A9DAF68
:010B330005BC
:010B3400229E
:100ACD00C2A0EF24FF92A17F05120A9D120A99C2BE
:080ADD00A0D2A17F05020A9DD1
:040B44007F327E007E
:0B0B4800EF1FAC0670011E4C70F6227F
:02092500AD071C
:10092700E4FBEBC39408748094805012C294ED13D7
:100937009294120B44D294EDC313FD0B80E47F32E3
:050947007E00020B48D8
:1009E200E4FBEBC39408748094805014C294EDC36A
:1009F20013FDD294309403430580120B440B80E222
:020A0200AF053E
:010A040022CF
:10094C00C200D2947F787E00120B48C2947F207E26
:10095C0003120B48D2947F647E00120B48A294922F
:06096C0000120B44A20082
:010972002262
:0B0B5F00EF1FAC0670011E4C70F62268
:10082D00EF603224FB601314601914601F240370F1
:10083D0027E5A0541F4480F5A022E5A0541F44A035
:10084D00F5A022E5A0541F44C0F5A022E5A0541F39
:09085D0044E0F5A02253A01F2283
:100A7E00AE077580FF7F0612082D8E807F017E00E7
:0B0A8E00120B5F7F0712082D8D8022E5
:100AB300C0F9A4B0999282F880908883C6A1868EEB
:0A0AC3007FBF0102040810204080EC
:0308FB00012E17B4
:1005EF00052AAF2AEF3395E0FEEF64064E700375D0
:1005FF002A01E52A24FE6015146024146029146072
:10060F003624047042E4F52275230A803A752205D8
:10061F00AE31AF327C007D641202DD8F23802875EE
:10062F0022067523108020752206AE31AF327C0072
:10063F007D0A1202DD8007752207AE31AF327C00D2
:10064F007D0A1202DD8D23E522900AC593FFE52373
:08065F00900AB393FD020A7E2C
:10066700052BAF2BEF3395E0FEEF64064E70037555
:100677002B01E52B24FE60151460241460291460F7
:100687003624047042E4F52275230B803A7522055F
:10069700AE33AF347C007D641202DD8F2380287572
:1006A70022067523108020752206AE33AF347C00F6
:1006B7007D0A1202DD8007752207AE33AF347C0056
:1006C7007D0A1202DD8D23E522900AC593FFE523FB
:0806D700900AB393FD020A7EB4
:10034000E50EC4F854F0C868FEE50FC4540F48FF2A
:100350007C007D0A1202CBE50F540F2FF525EC3EF1
:10036000F524E50CC4F854F0C868FEE50DC4540F3C
:1003700048FF1202CBE50D540F2FF527EC3EF52672
:10038000E50AC4F854F0C868FEE50BC4540F48FFF2
:100390001202CBE50B540F2FFFEC3EFE052CAD2CCB
:1003A000ED3395E0FCED64094C7003752C01E52CF0
:1003B00014B4080050749003C475F003A4C58325D9
:1003C000F0C583730203DC0203E60203EF0203F4C9
:1003D0000203FF02040802041002041EE4F522AE28
:1003E00024AF25FC802F752201AE24AF2580327505
:1003F00022028017752203AE26AF277C0080167577
:100400002204AE26AF278019752205752311801AA4
:100410007522067C007D0A1202DD8F23800C752276
:10042000077C007D0A1202DD8D23E522900AC59328
:0B043000FFE523900AB393FD020A7E53
:1006DF00052DAF2DEF3395E0FEEF64094E700375D6
:1006EF002D01E52D24F9600F14601924077021E402
:1006FF00F52275230D8019752206E52E75F00A84F3
:10070F00F523800C752207E52E75F00A8485F023FA
:10071F00E522900AC593FFE523900AB393FD020AE1
:01072F007E4B
:0408FE00022F0000C5
:100B10005389F0438901758A18758CFCC28DD28C7B
:030B2000D2A92235
:03000B000204D21A
:1004D200C0E0C0F0C083C082C0D075D000C000C0F0
:0D04E20001C002C003C004C005C006C00771
:1004EF00752100758A18758CFC7580FF7F041208C2
:1004FF002DAE31AF327C007D0A1202DDC3EF952E97
:10050F00EE940040250530E5307002052F94E8E5A4
:10051F002F9403401C752F007530006321FFE521D8
:10052F006004E4FD80067D018002E4FD7F03120775
:09053F0073E4FF12082D12099962
:10054800D007D006D005D004D003D002D001D00007
:0B055800D0D0D082D083D0F0D0E032B1
:10043B00C2AF12094CD2AF7FCC1209257F441209EF
:10044B00257FE87E03120B48C2AF12094CD2AF7F57
:10045B00CC1209257FBE1209251209E28F28120939
:10046B00E27531008F32E532F531E528F532E531B1
:10047B0020E353C4F854F0C868F531E532C4540F87
:10048B0048F532AE31FF7C007D0A1202CB8E318FE4
:10049B0032E528540FFCE4120216E4FBFA792078BB
:1004AB003F120106C004C005C006C007AC31AD3217
:1004BB00E4120211D003D002D001D00012001512A9
:0604CB00024A8E318F325F
:0104D1002208
:100A25008F28120B357F90120866120B237F401218
:100A35000866120B23AF28120866120B23020B530C
:1008CC00120B357F90120866120B237F41120866BB
:1008DC00120B23120B357F91120866120B2312098F
:0E08EC00737528008F29120B23120B53AF29AE
:0108FA0022DB
:100AE5001208CC7E007C017DF41202CB1C7DFF1226
:060AF50002DD8E338F3498
:010AFB0022D8
:10090200071880828486888A8C071181838587896B
:0B0912008B8D070A29592301010123E6
:10089B00E4FD7F8E120AFCE4F508C3E508940774A7
:1008AB00809480501574182508F8E6FF740A250803
:1008BB00F8E6FD120AFC050880E07D807F8E020AB7
:0108CB00FC30
:1009BE00E4F509C3E5099407748094805015741109
:1009CE002509F8E6FF1207F0740A2509F8A60705AF
:0309DE000980E0AD
:0109E10022F3
:100A6200E4FEEEC3940874809480500FC297EF1393
:0B0A720092A1EFC313FFD2970E80E7A4
:010A7D002256
:100AFC00C29300C29700D29300120A62AF05120A89
:040B0C0062C293220C
:1007F000E4FDC29300C29700D29300120A62E4FFA4
:10080000EFC39408748094805011C297EDC313FD18
:1008100030A103430580D2970F80E5C29300C297B1
:0C08200000D29700C2A100D2A100AF05D9
:01082C0022A9
:1007B200EF24FE601414601B1460222403702EC206
:1007C200B0D2B3D2B2D2B1801CC2B1D2B3D2B2D201
:1007D200B08012C2B2D2B3D2B1D2B08008C2B3D208
:0E07E200B2D2B1D2B0D2B4D2B5D2C2D2C422F9
:03091D00011F01B6
:080B6A007F3B7E5ADEFEDFFC3A
:010B72002260
:10099900E51F640170030205EFE51F64027003029D
:1009A9000667E51F64037003020340E51F640470D2
:0509B900031206DF221D
:100A45007F041207B220B414120B6A20B40B051FE1
:0D0A5500E51F64057003751F0130B4FD221C
:100730007F041207B220C419120B6A20C410052EC0
:10074000C3E52E9463748094804003752E6330C497
:10075000FD7F041207B220C219120B6A20C21015C5
:100760002ED3E52E9409748094805003752E0930A1
:03077000C2FD22A5
:04092000023500FF9D
:10077300ED701AEF14FF7E007401A807088005C30B
:1007830033CE33CED8F94236EE4235801EEF14FF16
:100793007E007401A807088005C333CE33CED8F991
:0F07A300F4FFEEF4FEEF5236EE5235853680222B
:0100030022DA
:10000E000202B6E86480F8E933E83360110460F068
:10001E00ED33EC337009E8FCE9FDEAFEEBFF220458
:10002E0060DED3EB9FEA9EE99DE8C2E78CF0C2F753
:10003E0095F0400CE8CCF8E9CDF9EACEFAEBCFFB1F
:10004E0012028185D0F05804700320D5B3E80470F5
:10005E00075002B2D50202C092D5EC0460F7E4CC90
:10006E00C0E0C398F8603B94186008400DD0E0FBE8
:10007E00020298E4FBFAC9FC8028E830E406E4C9E1
:10008E00FBE4CAFCE830E305E4C9CACBFCE854073C
:10009E006010F8C3E913F9EA13FAEB13FBEC13FC47
:1000AE00D8F130F52FC3E49CFCEF9BFFEE9AFEEDEA
:1000BE0099FDD0E0FBEF4E4D4C701222DB03020295
:1000CE00BDEC2CFCEF33FFEE33FEED33FDED30E7F0
:1000DE00EB020298EF2BFFEE3AFEED39FDD0E0FB7E
:1000EE0050130BBB00030202C0ED13FDEE13FEEF27
:0800FE0013FFEC13FC02029851
:10010600EC4D6011E8497017ED33EC3304600DE4F3
:10011600FCFFFEFD22E933E8330470F80202B61252
:10012600028158046009E4CC248150062850090253
:1001360002C02840030202BDC0E0EB4A7044B98009
:1001460006D0E0FB0202ACEF4E701CBD8008EBFF50
:10015600EAFEE9FD80EBE98DF0A4FEE5F00201EF91
:10016600E9CDF9EAFEEBFFEF89F0A4FCE5F0CE89D4
:10017600F0A42EFFE435F0CD89F0A42DFEE435F091
:100186008067EF4E7005BD80D780C3EF8BF0A4ACBF
:10019600F0EE8BF0A42CFCE435F0F8EF8AF0A42CFA
:1001A600E5F038FCE433CB8DF0A42CFCE5F03BF80D
:1001B600EE8AF0A42CFCE5F038F8E433CF89F0A4FD
:1001C6002CFCE5F038CF3400CE89F0A42FFFE5F003
:1001D6003EFEE433C98DF0A42EFEE5F039CD8AF05B
:1001E600A42FFFE5F03EFEE43DFD33D0E0FB5007D3
:1001F6000BBB000F0202C0EC2CFCEF33FFEE33FE0C
:06020600ED33FD02029839
:10020C0075F020800E75F010800575F0087D007E6D
:10021C00007F003392D530D503120332EC334010FB
:10022C00EF33FFEE33FEED33FDEC33FCD5F0ED2276
:0E023C00E5F0247EA2D513CC92E7CDCEFF22B2
:10024A00EDD2E7CD33EC3392D524814006E4FFFEAC
:10025A00FDFC22FCE4CFCECDCC24E0501174FF800B
:10026A00EDC3CC13CCCD13CDCE13CECF13CF0470A8
:07027A00F030D5DE02033273
:10028100E9D2E7C933E833F892D5EDD2E7CD33ECC3
:0702910033FC5002B2D5223C
:10029800EC30E7100FBF000C0EBE00080DBD0004C7
:1002A8000BEB6014A2D5EB13FCED92E7FD2274FF73
:1002B800FCFDFEFF22E480F8A2D574FF13FC7D80CC
:0302C800E480EFE0
:0300000002056393
:0C056300787FE4F6D8FD7581360205AA09
:1002CB00EF8DF0A4A8F0CF8CF0A428CE8DF0A42E47
:0202DB00FE2201
:1002DD00BC000BBE0029EF8DF084FFADF022E4CC05
:1002ED00F875F008EF2FFFEE33FEEC33FCEE9DECCE
:1002FD00984005FCEE9DFE0FD5F0E9E4CEFD22ED14
:10030D00F8F5F0EE8420D21CFEADF075F008EF2F5D
:10031D00FFED33FD4007985006D5F0F222C398FD4E
:05032D000FD5F0EA22EB
:0E033200C3E49FFFE49EFEE49DFDE49CFC22DC
:10056F00020A05E493A3F8E493A34003F68001F293
:10057F0008DFF48029E493A3F85407240CC8C3338D
:10058F00C4540F4420C8834004F456800146F6DF5C
:10059F00E4800B01020408102040809008FBE47EE9
:1005AF00019360BCA3FF543F30E509541FFEE49351
:1005BF00A360010ECF54C025E060A840B8E493A318
:1005CF00FAE493A3F8E493A3C8C582C8CAC583CA43
:1005DF00F0A3C8C582C8CAC583CADFE9DEE780BEFB
:0109240000D2
:00000001FF
