:1009C50012085FC2AF120AD0D2AF7F0A1209E51230
:1009D500043B12097E120AA51206F4120A0580EFDD
:040A5900D2A07F05A3
:100A5D00000000000000000000000000000000AEDB
:060A6D00071FEE70EB22F2
:0F0AF500D2A1120A59C2A17F05120A5DC2A02226
:0C0B1300C2A1120A59D2A17F05020A5D9E
:02082A00AD0718
:10082C00E4FCECC39408748094805024C2A07F052F
:10083C00120A5DED30E704D2A18002C2A17F05123D
:10084C000A5DD2A0ED25E0FD7F05120A5D0C80D279
:02085C00C2A038
:01085E002277
:10090D00E4FCECC39408748094805017120A59EDDE
:10091D0025E0FD30A103430501C2A07F05120A5D4C
:05092D000C80DFAF05A6
:0109320022A2
:100AE300120A59A2A1E433FDC2A07F05120A5DAF29
:010AF30005FD
:010AF40022DF
:100A8D00C2A0EF24FF92A17F05120A5D120A59C27E
:080A9D00A0D2A17F05020A5D51
:040B04007F327E00BE
:0B0B0800EF1FAC0670011E4C70F622BF
:0208BF00AD0783
:1008C100E4FBEBC39408748094805012C294ED133E
:1008D1009294120B04D294EDC313FD0B80E47F328A
:0508E1007E00020B087F
:1009A200E4FBEBC39408748094805014C294EDC3AA
:1009B20013FDD294309403430580120B040B80E2A2
:0209C200AF057F
:0109C4002210
:1008E600C200D2947F787E00120B08C2947F207ECD
:1008F60003120B08D2947F647E00120B08A2949216
:0609060000120B04A20028
:01090C0022C8
:0B0B1F00EF1FAC0670011E4C70F622A8
:1007F100EF603224FB601314601914601F2403702E
:1008010027E5A0541F4480F5A022E5A0541F44A071
:10081100F5A022E5A0541F44C0F5A022E5A0541F75
:0908210044E0F5A02253A01F22BF
:100A3E00AE077580FF7F061207F18E807F017E0064
:0B0A4E00120B1F7F071207F18D8022A2
:100A7300C0F9A4B0999282F880908883C6A1868E2B
:0A0A83007FBF01020408102040802C
:03093300012D177C
:10055E000529AF29EF3395E0FEEF64064E70037563
:10056E002901E52924FE6015146024146029146005
:10057E003624047042E4F52175220A803A7521056D
:10058E00AE2EAF2F7C007D641202DD8F2280287587
:10059E0021067522108020752106AE2EAF2F7C000D
:1005AE007D0A1202DD8007752107AE2EAF2F7C006B
:1005BE007D0A1202DD8D22E521900A8593FFE52248
:0805CE00900A7393FD020A3E3E
:1005D600052AAF2AEF3395E0FEEF64064E700375E9
:1005E6002A01E52A24FE601514602414602914608B
:1005F6003624047042E4F52175220B803A752105F4
:10060600AE30AF317C007D641202DD8F228028750A
:1006160021067522108020752106AE30AF317C0090
:100626007D0A1202DD8007752107AE30AF317C00EE
:100636007D0A1202DD8D22E521900A8593FFE522CF
:08064600900A7393FD020A3EC5
:10034000E50EC4F854F0C868FEE50FC4540F48FF2A
:100350007C007D0A1202CBE50F540F2FF524EC3EF2
:10036000F523E50CC4F854F0C868FEE50DC4540F3D
:1003700048FF1202CBE50D540F2FF526EC3EF52574
:10038000E50AC4F854F0C868FEE50BC4540F48FFF2
:100390001202CBE50B540F2FFFEC3EFE052BAD2BCD
:1003A000ED3395E0FCED64094C7003752B01E52BF2
:1003B00014B4080050749003C475F003A4C58325D9
:1003C000F0C583730203DC0203E60203EF0203F4C9
:1003D0000203FF02040802041002041EE4F521AE29
:1003E00023AF24FC802F752101AE23AF248032750A
:1003F00021028017752103AE25AF267C008016757B
:100400002104AE25AF268019752105752211801AA9
:100410007521067C007D0A1202DD8F22800C752179
:10042000077C007D0A1202DD8D22E521900A85936A
:0B043000FFE522900A7393FD020A3ED4
:1006A300052CAF2CEF3395E0FEEF64094E70037514
:1006B3002C01E52C24F9600F14601924077021E440
:1006C300F52175220D8019752106E52D75F00A8433
:1006D300F522800C752107E52D75F00A8485F0223B
:1006E300E521900A8593FFE522900A7393FD020AA0
:0106F3003EC8
:100AD0005389F0438901758A18758CFCC28DD28CBC
:030AE000D2A92276
:03000B0002064E9C
:10064E00C0E0C0F0C083C082C0D075D000C000C072
:10065E0001C002C003C004C005C006C007758A18D9
:10066E00758CFC7580FF7F041207F17D017F0112EE
:10067E000737E4FF1207F1120959D007D006D0054B
:10068E00D004D003D002D001D000D0D0D082D083FD
:05069E00D0F0D0E032B5
:10043B00C2AF1208E6D2AF7FCC1208BF7F441208BE
:10044B00BF7FE87E03120B08C2AF1208E6D2AF7F64
:10045B00CC1208BF7FBE1208BF1209A28F27120948
:10046B00A2752E008F2FE52FF52EE527F52FE52E04
:10047B0020E353C4F854F0C868F52EE52FC4540F8D
:10048B0048F52FAE2EFF7C007D0A1202CB8E2E8FED
:10049B002FE527540FFCE4120216E4FBFA792078BF
:1004AB003F120106C004C005C006C007AC2EAD2F1D
:1004BB00E4120211D003D002D001D00012001512A9
:0604CB00024A8E2E8F2F65
:0104D1002208
:1009E5008F27120AF57F9012082A120AE37F401218
:1009F500082A120AE3AF2712082A120AE3020B1388
:10089000120AF57F9012082A120AE37F4112082AF1
:1008A000120AE3120AF57F9112082A120AE31209CA
:0E08B0000D7527008F28120AE3120B13AF28D4
:0108BE002217
:100AA5001208907E007C017DF41202CB1C7DFF12A2
:060AB50002DD8E308F31DE
:010ABB002218
:10093600071880828486888A8C0711818385878937
:0B0946008B8D070A29592301010123B2
:10085F00E4FD7F8E120ABCE4F508C3E50894077423
:10086F00809480501574182508F8E6FF740A25083F
:10087F00F8E6FD120ABC050880E07D807F8E020A33
:01088F00BCAC
:10097E00E4F509C3E5099407748094805015741149
:10098E002509F8E6FF1207B4740A2509F8A607052B
:03099E000980E0ED
:0109A1002233
:100A2200E4FEEEC3940874809480500FC297EF13D3
:0B0A320092A1EFC313FFD2970E80E7E4
:010A3D002296
:100ABC00C29300C29700D29300120A22AF05120A09
:040ACC0022C293228D
:1007B400E4FDC29300C29700D29300120A22E4FF20
:1007C400EFC39408748094805011C297EDC313FD55
:1007D40030A103430580D2970F80E5C29300C297EE
:0C07E40000D29700C2A100D2A100AF0516
:0107F00022E6
:10077600EF24FE601414601B1460222403702EC242
:10078600B0D2B3D2B2D2B1801CC2B1D2B3D2B2D23D
:10079600B08012C2B2D2B3D2B1D2B08008C2B3D244
:0E07A600B2D2B1D2B0D2B4D2B5D2C2D2C42235
:03095100011F0182
:080B2A007F3B7E5ADEFEDFFC7A
:010B320022A0
:10095900E51F6401700302055EE51F64027003026E
:1009690005D6E51F64037003020340E51F640470A4
:05097900031206A32299
:100A05007F0412077620B414120B2A20B40B051F9D
:0D0A1500E51F64057003751F0130B4FD225C
:1006F4007F0412077620C419120B2A20C410052D7A
:10070400C3E52D9463748094804003752D6330C4D5
:10071400FD7F0412077620C219120B2A20C210157D
:100724002DD3E52D9409748094805003752D0930E0
:03073400C2FD22E1
:04095400023200FF6C
:10073700ED701AEF14FF7E007401A807088005C347
:1007470033CE33CED8F94233EE4232801EEF14FF58
:100757007E007401A807088005C333CE33CED8F9CD
:0F076700F4FFEEF4FEEF5233EE52328533802270
:10000E000202B6E86480F8E933E83360110460F068
:10001E00ED33EC337009E8FCE9FDEAFEEBFF220458
:10002E0060DED3EB9FEA9EE99DE8C2E78CF0C2F753
:10003E0095F0400CE8CCF8E9CDF9EACEFAEBCFFB1F
:10004E0012028185D0F05804700320D5B3E80470F5
:10005E00075002B2D50202C092D5EC0460F7E4CC90
:10006E00C0E0C398F8603B94186008400DD0E0FBE8
:10007E00020298E4FBFAC9FC8028E830E406E4C9E1
:10008E00FBE4CAFCE830E305E4C9CACBFCE854073C
:10009E006010F8C3E913F9EA13FAEB13FBEC13FC47
:1000AE00D8F130F52FC3E49CFCEF9BFFEE9AFEEDEA
:1000BE0099FDD0E0FBEF4E4D4C701222DB03020295
:1000CE00BDEC2CFCEF33FFEE33FEED33FDED30E7F0
:1000DE00EB020298EF2BFFEE3AFEED39FDD0E0FB7E
:1000EE0050130BBB00030202C0ED13FDEE13FEEF27
:0800FE0013FFEC13FC02029851
:10010600EC4D6011E8497017ED33EC3304600DE4F3
:10011600FCFFFEFD22E933E8330470F80202B61252
:10012600028158046009E4CC248150062850090253
:1001360002C02840030202BDC0E0EB4A7044B98009
:1001460006D0E0FB0202ACEF4E701CBD8008EBFF50
:10015600EAFEE9FD80EBE98DF0A4FEE5F00201EF91
:10016600E9CDF9EAFEEBFFEF89F0A4FCE5F0CE89D4
:10017600F0A42EFFE435F0CD89F0A42DFEE435F091
:100186008067EF4E7005BD80D780C3EF8BF0A4ACBF
:10019600F0EE8BF0A42CFCE435F0F8EF8AF0A42CFA
:1001A600E5F038FCE433CB8DF0A42CFCE5F03BF80D
:1001B600EE8AF0A42CFCE5F038F8E433CF89F0A4FD
:1001C6002CFCE5F038CF3400CE89F0A42FFFE5F003
:1001D6003EFEE433C98DF0A42EFEE5F039CD8AF05B
:1001E600A42FFFE5F03EFEE43DFD33D0E0FB5007D3
:1001F6000BBB000F0202C0EC2CFCEF33FFEE33FE0C
:06020600ED33FD02029839
:10020C0075F020800E75F010800575F0087D007E6D
:10021C00007F003392D530D503120332EC334010FB
:10022C00EF33FFEE33FEED33FDEC33FCD5F0ED2276
:0E023C00E5F0247EA2D513CC92E7CDCEFF22B2
:10024A00EDD2E7CD33EC3392D524814006E4FFFEAC
:10025A00FDFC22FCE4CFCECDCC24E0501174FF800B
:10026A00EDC3CC13CCCD13CDCE13CECF13CF0470A8
:07027A00F030D5DE02033273
:10028100E9D2E7C933E833F892D5EDD2E7CD33ECC3
:0702910033FC5002B2D5223C
:10029800EC30E7100FBF000C0EBE00080DBD0004C7
:1002A8000BEB6014A2D5EB13FCED92E7FD2274FF73
:1002B800FCFDFEFF22E480F8A2D574FF13FC7D80CC
:0302C800E480EFE0
:030000000204D225
:0C04D200787FE4F6D8FD7581330205192F
:1002CB00EF8DF0A4A8F0CF8CF0A428CE8DF0A42E47
:0202DB00FE2201
:1002DD00BC000BBE0029EF8DF084FFADF022E4CC05
:1002ED00F875F008EF2FFFEE33FEEC33FCEE9DECCE
:1002FD00984005FCEE9DFE0FD5F0E9E4CEFD22ED14
:10030D00F8F5F0EE8420D21CFEADF075F008EF2F5D
:10031D00FFED33FD4007985006D5F0F222C398FD4E
:05032D000FD5F0EA22EB
:0E033200C3E49FFFE49EFEE49DFDE49CFC22DC
:1004DE000209C5E493A3F8E493A34003F68001F266
:1004EE0008DFF48029E493A3F85407240CC8C3331F
:1004FE00C4540F4420C8834004F456800146F6DFEE
:10050E00E4800B0102040810204080900933E47E41
:10051E00019360BCA3FF543F30E509541FFEE493E2
:10052E00A360010ECF54C025E060A840B8E493A3A9
:10053E00FAE493A3F8E493A3C8C582C8CAC583CAD4
:10054E00F0A3C8C582C8CAC583CADFE9DEE780BE8C
:01095800009E
:00000001FF
